:020000040001F9
:10B000003033002015B101002FB1010031B1010032
:10B010000000000000000000000000000000000030
:10B0200000000000000000000000000033B101003B
:10B03000000000000000000035B1010037B1010040
:10B0400039B1010039B101000DBC010039B1010075
:10B0500039B101000000000041B7010039B1010021
:10B0600039B1010039B1010039B101008DB80100D9
:10B0700039B1010039B1010039B1010039B1010024
:10B0800039B101002DB9010039B1010039B1010018
:10B0900091BB010039B1010099BB010039B1010038
:10B0A00039B1010039B101000000000000000000CA
:10B0B0000000000000000000000000000000000090
:10B0C0000348854600F096FA0048004709E0010071
:10B0D00030330020401E00BF00BF00BF00BF00BFD4
:10B0E00000BF00BF00BF00BF00BF00BF00BFF1D165
:10B0F00070470000401E00BF00BF00BF00BF00BF80
:10B1000000BF00BF00BF00BF00BF00BF00BFF1D144
:10B11000704700000321094802680A43026008489A
:10B1200002680A4302600748804707480047FEE775
:10B13000FEE7FEE7FEE7FEE7FEE70000240500402D
:10B1400054050040B9BB0100C1B0010030B50B4649
:10B15000014600202022012409E00D46D5409D42F1
:10B1600005D31D469540491B254695404019154677
:10B17000521E002DF1DC30BD70B50024254600289C
:10B1800001DA01244042002901DA01254942FFF792
:10B19000DDFFAC4200D04042002C00D0494270BDDF
:10B1A00003460B439B0703D009E008C9121F08C0E0
:10B1B000042AFAD203E00B780370401C491C521E8B
:10B1C000F9D27047D2B201E00270401C491EFBD296
:10B1D00070470022F6E710B513460A4604461946A2
:10B1E000FFF7F0FF204610BD421C0178401C0029EB
:10B1F000FBD1801A704703460A780270401C491C34
:10B20000002AF9D118467047F0B51FB40646002051
:10B2100082B005464024019100901BE0019922462E
:10B220000F46304600F008FA049A059B801A9941AF
:10B2300010D310461946224600F0EEF9361A8F4117
:10B240000197224601200021009F00F0E5F93818FF
:10B250004D4100902046641E0028DFDC019B0098D1
:10B260002946324607B0F0BDF0B5074608465840BB
:10B2700087B0C00F049048000E46590040084908A6
:10B28000BC1A884105D2384631461E4617460B4641
:10B2900002465800400810434CD0300D0390400542
:10B2A0005900400D490D0590401A0290402872DA6D
:10B2B00018030121000B090508430190049800922E
:10B2C000002805D001995242002088410092019047
:10B2D000029840210A1A0199009800F09DF905464C
:10B2E0000C466B4607CB00F0B8F9C0197141039AC0
:10B2F0000E0D0023D71756401A467A40164344D005
:10B30000049A002A2DD0029A012A039A15DC12050C
:10B31000C01A914101263605001C7141D20F059ECD
:10B32000D2070093019202962A46234600F0B5F90F
:10B3300007B0F0BD38463146FAE71605224A0F46F7
:10B34000B218C01AB74101210905001C4F4100186D
:10B350007F41114618187941E20F10436D1964417D
:10B3600013E0E2076D0815436408C2071443039A0B
:10B3700001261205C01A91413605001C7141CE0705
:10B38000400830434908C01851412A46234600F07E
:10B3900077F9CDE7FFE7049801224000C117121AA0
:10B3A00000238B4104983146C417381AA141EEE7B7
:10B3B00030B40124E407634030BC55E730B40124C5
:10B3C000E407614030BC4FE70000E0FFF0B51FB478
:10B3D00088B00B990998002448400999C00F49008A
:10B3E00049080991C0070B990090490049080B9141
:10B3F00009990898A64608431CD00B990A98084357
:10B4000018D0099801244000420D4800410D0998C8
:10B4100024050003000B204309900B980003000B48
:10B4200020430B9050181C494018002201901446EC
:10B43000104605E0002001460DB0F0BD032801DAFA
:10B44000034600E003239C46C11A0AAE0AE05F00EF
:10B4500008ADED5B4F00F75B7D430027AA187C41E8
:10B46000491C5B1E6145F2DD410004AB5A522104C8
:10B47000120C0A43240C401C0828DFDB01980290C0
:10B480000099704601910090059B049A07990698CF
:10B4900000F003F9D0E700000DFCFFFFF0B50C460B
:10B4A0005C4085B0E40FE40703944C000026640878
:10B4B00059009446490802460296224321D062462A
:10B4C0000A431ED06200570D4A000E032303550D98
:10B4D000012402462C492405781B1B0B360B40180F
:10B4E00023432643614600901C46501AB44103D3BF
:10B4F0000098401C009002E0921800985B410028E0
:10B5000003DA0020014605B0F0BD00200121090545
:10B510000746864611E064461D46141BB54106D316
:10B520006546521BB341744607430C43A646CD07FC
:10B5300040084908284392185B4105460D43EAD16B
:10B540001046184313D060461946504071400843D6
:10B5500006D06046101AB34106D20122002306E04D
:10B5600000220123DB0702E00122D243531000989E
:10B5700074460105381C6141029C039D0019694114
:10B5800000F07EF8BFE70000FD0300004A00090359
:10B590000123090B1B0519430A4B10B5520D9A42A2
:10B5A00002DA0020014610BD064B34339A4203DC18
:10B5B0009A1A00F041F810BD034BD21800F02CF895
:10B5C00010BD0000FF030000CDFBFFFF10B50029F8
:10B5D00004DB0124E40740428C412146002B04DBBC
:10B5E0001C460123DB075242A341994200D19042FD
:10B5F00010BD0000064C0125064E05E0E36807CCAF
:10B600002B430C3C98471034B442F7D3FFF75CFD52
:10B6100004FC010024FC010010B5202A04DB0146D3
:10B62000203A9140002010BD914020239C1A0346EF
:10B63000E3401943904010BD10B5202A04DB0846B2
:10B64000203AD040002110BD0B46D340D0402024EA
:10B65000A21A91400843194610BD10B5202A06DBF6
:10B66000CB170846203A1041C1170B4306E00B46A2
:10B670001341D0402024A21A91400843194610BD1E
:10B6800010B5002B08DA0024401C614192185B4180
:10B690001A4301D14008400010BDF0B51FB482B07C
:10B6A00005460C0003D0084600F044FC02E000F020
:10B6B00041FC20300246009021462846FFF7ACFFAF
:10B6C000049B059A04460F4618431143084314D0BF
:10B6D000184610431BD0009840210A1A18460599B5
:10B6E000FFF7AAFF05460E46009A05990498FFF752
:10B6F00093FF084305D0012004E02046394607B0F7
:10B70000F0BD0020C11705430E432C433743009979
:10B710000E986305401A7905E40A00220C43FD0ADD
:10B720000A3002D500200146E9E7010510196941F8
:10B730000C9C0D9D00196941FFF7A2FFDFE7000097
:10B74000F8B50024FF250135012627460094284638
:10B7500002F0D2FF002808D034484068304204D0BC
:10B76000334800212818344301602D1D76007F1CCA
:10B77000ADB2042FEBD3FF207D3002F0BDFF0028D7
:10B7800007D02C4800210160400704432A48006983
:10B7900000902A4F200712D00126002526420AD009
:10B7A0002748AA00111808690969C004C00E890356
:10B7B000BA58890F904776006D1C042DEED3002CEB
:10B7C00030DA00241D4E0021301940304156491C0A
:10B7D00025D00778BD06AD0E284601F059FE800041
:10B7E0003658002E1BD0BF090121A940154AA800D8
:10B7F00080180068009A8003800F114202D002284E
:10B8000002D00CE003280AD1032F05D102280AD068
:10B810000221284602F060FF39462846B047641CE2
:10B82000042CCFD3F8BD0321F3E7000000630040F0
:10B83000006000407C610040000500503C26002074
:10B8400000650040000700508307FF22DB0E9A408E
:10B850008907090E994000280BDA0007000F083805
:10B86000830808489B001818C36993430B43C361BE
:10B870007047830804489B001B18186890430843CE
:10B880001860704700ED00E000E400E0FEB5002025
:10B8900007460190234C0125FF2603202D04413645
:10B8A000000220180090406828420ED0A0590028BD
:10B8B0000BD000988564009885600020A051019904
:10B8C000F8B28A00184989588847361D6D007F1CD8
:10B8D000B6B2042F01D20098E5E70099FF2049682D
:10B8E0000130C907C90F0AD02158002907D000210B
:10B8F0002150019881000C48415804208847009A43
:10B90000FF200530526802210A420AD0215800293E
:10B9100007D000212150019881000348415805209B
:10B920008847FEBD00B00040F81D002010B5064954
:10B930000020086048608860C8600349403908609A
:10B94000486003F021FF10BD4011014070B5074B66
:10B950000646187814460D46002801D100F05AF921
:10B9600022462946304600F003F870BDB42A002074
:10B9700070B50E4618214843134914464518E86A25
:10B980001835002804D001280FD0022805D113E073
:10B99000284600F075F9A04201D2002411E02246A9
:10B9A0003146284600F097FA0BE0284600F068F987
:10B9B000A042F4D20446F2E73146284600F05BFA92
:10B9C0000446204670BD0000B42A002070B505462C
:10B9D0000C460846FFF708FC024621462846FFF7BA
:10B9E000B5FF70BD0FB408B504A900916A4603996C
:10B9F00000F004F801B008BC04B01847F7B598B0DF
:10BA000007A80290402000250495039018980C4642
:10BA1000059506902178641C002977D0252907D048
:10BA200002A800F009FA05980028F3DA1BB0F0BD6F
:10BA300001220021022713460826207823281BD044
:10BA40002B2816D02D2802D0302806D101E019432A
:10BA500000E03943641C002AEFD10022207803461D
:10BA6000303B0A2B0AD20A235A431218303A641C7C
:10BA7000F4E704200143EDE73143EBE70023C7B2CD
:10BA80002E2F0AD1641C20780746303F0A2F04D29B
:10BA90000A277B431B18303BF4E76C280DD068283D
:10BAA0000BD0702852D00BDC25285AD058282ED025
:10BAB00063280CD0642858D110E02078641CECE78F
:10BAC000732832D0752817D078284ED11FE01A98E5
:10BAD0001A9A0068011D1160017843E01A981A9FB4
:10BAE0000068061D3E6000680191009201460A222E
:10BAF00002A800F0D0F838E01A981A9F0068061DD6
:10BB00003E600068009201910A2209E02FE01A9835
:10BB10001A9F0068061D3E60006800920191102285
:10BB2000014602A800F01CF91FE01A981A9A006852
:10BB3000011D116006683178761C002915D002A815
:10BB400000F07AF905980028F5DA0EE01A981A9AAA
:10BB500000680823011D11600168102200960195FC
:10BB6000DFE7252102A800F067F9641C5BE7059870
:10BB7000002800DC5AE70498002804D0024607A9F0
:10BB80001898FFF7E3FE04990598401805904DE7D3
:10BB900010B503F08FFD10BD10B5064840680028B1
:10BBA00005D08047002801D000F0C4FE10BD02F08F
:10BBB0004BF810BD581E002010B502F0A1F8002867
:10BBC00005D00E490C484860C8130D4988610D48DE
:10BBD000018CC9B201290ED1818C09070BD1018DCD
:10BBE0000906090F042906D1808D0006000F02D135
:10BBF00005490120886010BDDFFF07C00005004037
:10BC0000006C0040C00F00F00006004010B503F0CB
:10BC1000A5FE10BD10B5124C02202061606111A07C
:10BC2000A0611348E0610120800220620020A06230
:10BC300060620CA1A1642146E0621039E164102128
:10BC40002165A0656065E0650AA1E01DFFF7D3FAF4
:10BC500009A12046FFF7CFFA2020A07110BD0000F7
:10BC6000B42A00205465726D696E616C000000009A
:10BC7000A426002052545400534547474552000023
:10BC80000269C1688A4203D88068401A801800E0BF
:10BC9000501A401E7047FFB583B00E4670420D9F8C
:10BCA0000C9C0090002900DB0846012502E0FFF70C
:10BCB00063FA6D1C05998842F9DA0698A84200D902
:10BCC0000546002C04D0002E01DB780700D5641E49
:10BCD000B80702D50698002810D0F8070ED1002C1E
:10BCE0000CD0A5420AD22021641E039800F0A4F8CB
:10BCF0000398C0680028F2DA07B0F0BD0398C06866
:10BD00000028F9DB002E02DA2D21009E02E07807E0
:10BD100007D52B21039800F08FF80398C0680028FE
:10BD2000EADBB807800F022810D1069800280DD151
:10BD3000002C0BD0A54209D23021641E039800F0DC
:10BD40007BF80398C0680028F2DAD5E701970094E1
:10BD50003146069B059A039800F002F8CCE70000F4
:10BD6000FFB581B001261F4634460A9D029802E0C5
:10BD7000FFF7ECF9641C03998842F9D2A74200D975
:10BD80003C460B98C00718D1002D16D00B988007A1
:10BD900001D5002F02D0202000900CE03020FBE7DE
:10BDA0006D1E0099019800F047F80198C0680028BE
:10BDB0003DDB002D01D0AC42F2D30198C0680028D1
:10BDC00035DB012F01D97F1E06E031460298FFF7CF
:10BDD000BDF90399884202D303984643F1E7154F12
:10BDE00031460298FFF7B2F90146029A7143511A9F
:10BDF0000291395C019800F01FF80198C068002892
:10BE000005DB30460399FFF7A1F90600E8D10B984E
:10BE1000C0070CD0002D0AD0AC4208D220216D1EE4
:10BE2000019800F009F80198C0680028F2DA05B01E
:10BE3000F0BD0000F4FB010010B5044680686368A3
:10BE4000421C934205D323681954A260E068401C49
:10BE5000E060A2686068824209D121682069FFF72A
:10BE600075FDA168884203D00020C043E06010BD8A
:10BE70000020A06010BDF7B5064682B000200090FB
:10BE8000F46817463069A04201D9051B02E0B16889
:10BE9000201A0D1AB0686D1E001BA84200D8054676
:10BEA000BD4200D33D4670682A4600190399FFF74A
:10BEB00077F900987F1B4019009003986419401986
:10BEC0000390B068A04200D10024F460002FD9D1C3
:10BED000009805B0F0BDF7B5C668174604468068FF
:10BEE000851B6068BD4206D980190199FFF758F992
:10BEF000F019E060FEBD2A4680190199FFF750F95C
:10BF000001987E1B411932466068FFF749F9E660E7
:10BF1000FEBD00000FB410B503A9044B044A0298FB
:10BF200000F0E8F810BC08BC04B0184771DB010051
:10BF3000401E00202021020C01D010211046020AD0
:10BF400001D010460839020901D01046091F8208A5
:10BF500001D01046891E420801D0881E7047081A79
:10BF6000704730B47446641E2578641CAB4200D21E
:10BF70001D46635D5B00E31830BC184702E008C84B
:10BF8000121F08C1002AFAD170477047002001E053
:10BF900001C1121F002AFBD170470000F0B51FB489
:10BFA00084B007980699020D014314D04A484B49C2
:10BFB0001018484305140F9801280E981CD0281A11
:10BFC000401C0024464E47490094019102900028ED
:10BFD00014DA474227E00F98012443A3012808D030
:10BFE000002104980F9A84600360C260416009B028
:10BFF000F0BD0E98C143F4E74042E2E7074612E085
:10C00000F80707D02246334601990098FFF7DEF97A
:10C01000019100902246334610461946FFF7D6F9A3
:10C0200004460E467F10002FEAD10298019B00289B
:10C03000009A0799069802DAFFF7C8F901E0FFF7BE
:10C040002DFA04460E460022284BFFF7BFFA03D80C
:10C050000020C043014607E00022254B2046314620
:10C06000FFF702F9FFF792FA102409E0002C0ADB2F
:10C070000A220023FFF7C8F8059B30321A55641EC8
:10C0800002460A43F2D11122641C059B121B1C19A3
:10C090000F9B012B03D0012308430ED10AE0084374
:10C0A00004D011200E9000200F9084E70E98151AEE
:10C0B0006D1E0BE00E98824202DD00236D1C03E032
:10C0C000824201DA00236D1E002BEED004980F99F6
:10C0D0008260C16030C08AE701FCFFFF104D0000A4
:10C0E000000024400000F03F300000000000F0435A
:10C0F0000000E03FFFB597B00646002518E225286E
:10C1000077D100242746FD49049400E00443761CBF
:10C1100032780120203A90400842F7D130782A281E
:10C120000ED00222307801463039092916D80499F8
:10C130000A235943303940181443761C0490F1E720
:10C14000189802C804911890002904DA01204003CD
:10C1500004434842049002200443761C30782E2881
:10C1600014D1042004437078761C2A2809D1189829
:10C17000761C80C8189009E00A214F43303FC71948
:10C18000761C3078014630390929F5D930786C2889
:10C1900010D006DC4C281AD068280ED06A2817D197
:10C1A00004E0742813D07A2812D110E00120400551
:10C1B00004430CE00121090501E0032109050C43BA
:10C1C0007178814203D1012000052418761C761C69
:10C1D0003078119066280BD013DC58287DD009DC0C
:10C1E00000287BD04528F6D04628F4D047281AD11D
:10C1F000A5E118E0632835D0642870D0652812D1F5
:10C200009DE170286CD008DC6728F1D069287BD0CC
:10C210006E280DD06F2806D1BAE073282ED075286D
:10C2200071D0782859D01A9A199990476D1C7EE1DF
:10C230006002400F022809D003280DD00428189866
:10C2400001680DD00D60001D189070E11898EA1774
:10C2500001680D604A60F6E7189801680D80F2E702
:10C260000D70F0E718986A4601781172001D189059
:10C270000020507202A80090012005E0189802C822
:10C28000189000200091C04361070DD5002101E006
:10C290000199491C0191B94212DA8142F8DB009AF6
:10C2A000515C0029F4D10BE0002101E00199491C07
:10C2B00001918142FADB019A0099895C0029F5D14C
:10C2C000019904981A9B471A21463846199A00F09A
:10C2D00097FA0199401945180BE04FE02CE113E063
:10C2E0004EE0009800990078491C00911A9A19991B
:10C2F00090470198401E0190401CF2D121463846DB
:10C300001A9B199A10E137E00A2000210090019150
:10C310006002410F022907D0189A01CA1892C21769
:10C320009446032908D00AE01898C01DC108C90026
:10C3300005C91891944607E000B2C2179446042933
:10C3400002D140B2C1178C4600226146944506DAFC
:10C350000A460021404291418C462D2102E02105F0
:10C3600004D52B216A461173012103E0E10701D0B6
:10C370002021F7E7029155E00A200AE0102008E0AA
:10C38000102000900021042004430191082703E0BD
:10C3900008200021019100906002410F022907D07E
:10C3A000189A01CA189200229446032908D008E07E
:10C3B0001898C01DC108C90005C91891944603E02A
:10C3C00080B2042900D1C0B200210291210729D5F1
:10C3D0001199702906D0009A1021019B4A401A43F6
:10C3E00005D00EE040216A461173012108E0614644
:10C3F000014306D030216A4611731199517302210D
:10C400000291009A0821019B4A401A430AD16146D1
:10C41000014301D1610705D530216A46117301211D
:10C420007F1E02911199582904D035A10E910DA9B2
:10C430000D910DE037A1F9E76146019B009AFEF7E7
:10C44000E3FE0E9B8C469B5C0D9A521E0D92137060
:10C4500061460143F0D10D9805A9081A20300190DA
:10C46000600703D501200004844300E00127019800
:10C47000874201DD381A00E0002001990090411840
:10C48000029809180498401A0490E00306D4214643
:10C490001A9B199A049800F0B3F94519002706E091
:10C4A00003A81A9AC05D199990476D1C7F1C0298C9
:10C4B0008742F5DBE0030CD521461A9B199A0498B4
:10C4C00000F09EF9451904E01A9A30201999904716
:10C4D0006D1C0099481E00900029F5DC08E00D98BD
:10C4E0000D990078491C0D911A9A199990476D1C65
:10C4F0000199481E01900029F1DC63E1092801003F
:10C5000030313233343536373839616263646566C9
:10C51000000000003031323334353637383941428B
:10C52000434445460000000000F05AF94519761CC6
:10C530003078002800D0E2E528461BB0F0BD600747
:10C5400000D406271898C01DC108C90048680A68A9
:10C550000831C30FDB071891190001D09CA108E036
:10C56000210501D59BA104E0E10701D09AA100E0DB
:10C570009AA1430011985B08109165280CD006DC45
:10C58000452809D046281DD0472841D141E06628DA
:10C5900018D067283CD13CE00021112F01DB11208D
:10C5A00000E0781C0191009008A911A8FFF7F6FCA3
:10C5B000139905910021119A15927F1C12980197E9
:10C5C000009150E00120C00703900120019008A9CC
:10C5D000009711A8FFF7E2FC139A14990592002224
:10C5E000119B009212981593059A0192002901D08F
:10C5F000104602E0791C40180190381A01D50198C4
:10C6000004E04042401E0090781C0190C01B029044
:10C6100043E0012F00DA01270021112F01DD112055
:10C6200000E038460191009008A911A8FFF7B6FC78
:10C6300013990591119A0021129815920091019772
:10C6400021070CD40599B94201DB019900E0019161
:10C65000012904DD159A491E515C302906D0B842E3
:10C6600001DA011D05DA0121029115E00199491E47
:10C67000EDE7002805DC0099411800910199091A9D
:10C6800003E0019A411C914200DD01910099401A9A
:10C69000401C02900120C0070390200706D4029995
:10C6A0000198814202DB0020C043029000206946CD
:10C6B000C87707AF012103980337C907884224D000
:10C6C000022011902B201290039800280CDA40428F
:10C6D00003902D20129007E00A210398FEF736FD03
:10C6E00030317F1E039039701199481E1190002936
:10C6F000F2DC03980028EFD1791E12980870307888
:10C70000202108404530BF1E387006A8C01BC01D40
:10C71000039010980078002800D00120019941185A
:10C720000298C0170918039809180498401A401E67
:10C730000490E00306D421461A9B199A049800F04D
:10C740005FF8451910980078002803D01A9A1999B3
:10C7500090476D1CE00324D521461A9B199A049832
:10C7600000F04EF845191CE00098002807DB0099FE
:10C770000598884203DD1598405C199901E01999E4
:10C7800030201A9A904700986D1C401C0090029827
:10C79000401E0290002804D11A9A2E201999904721
:10C7A0006D1C0199481E01900029DDDC05E03878F8
:10C7B0001A9A7F1C199990476D1C0399481E039083
:10C7C0000029F4DC21461A9B199A0498ACE6000073
:10C7D0002D0000002B0000002000000000000000E1
:10C7E000F8B5044600251E461746880404D405E023
:10C7F00039462020B0476D1C641EF9D52846F8BD87
:10C80000FFB50446002581B01E46C80301D5302778
:10C8100000E02027880404D505E038460399B04796
:10C820006D1C641EF9D5284605B0F0BD10B5012277
:10C830000221002000F076FC002801D0072812D148
:10C8400007220221012000F06DFC002801D00728FA
:10C8500009D100210A22084600F064FC002801D01A
:10C86000072800D1002010BD044842680121C905F5
:10C870000B46934383600A40C26070470005005036
:10C8800070B50024064D06E06968E000085C0121EF
:10C8900001F0DEFC641C28788442F5D3002070BDD2
:10C8A000441E0020F8B515460C460646052A01D25E
:10C8B0000720F8BD01F0A2FD002803D101F074FDAE
:10C8C0000028F6D1104900204E600C70C8608D60C1
:10C8D00008610E4D0DE0E0006968801900918178D3
:10C8E0006A46517000780A4A694601F001FD002845
:10C8F000DFD12046641EE4B20028ECD1054A0021B5
:10C90000024800F07BF8F8BD441E0020ECFB01005B
:10C9100081DB0100B9D80100BFF34F8F0449034800
:10C92000C860BFF34F8F00BFFDE700000400FA05A9
:10C9300000ED00E00EB50021029000916A460191E1
:10C940000148FFF7E9FF00000140000010B58268D0
:10C95000C368934203D001F05DF8002010BD0520AC
:10C9600010BD002906D0002A02D0531E134203D066
:10C97000092070470E20704701608380002181608C
:10C98000C1600846704710B58268C3689A1A8388E8
:10C990009A4203D801F048F8002010BD042010BDD1
:10C9A00038B50C46A2680C235A43064B09789D58AB
:10C9B000054A126A00920246204608302369A847B9
:10C9C00038BD000030260020FC1D002010B50649AF
:10C9D00014230A785A435118091DFFF7E1FF042078
:10C9E00002F0BEFC10BD0000642500200249496829
:10C9F000016000207047000000150140094B9B6852
:10CA0000002B07D0002A07D0002805D00068037C3F
:10CA1000002B03D008207047072070474174426103
:10CA200000207047201E0020FFB59007002581B030
:10CA300014460E46002832D11B4F002C31D002F094
:10CA40001BFC049878610320387033461821224675
:10CA500000204B43BC601834C10089180D704D7024
:10CA60008E704C601C19401C0328F5DBFD607D7046
:10CA700001240E48BD702405046003211420FEF734
:10CA8000E3FE0B4804600B4C0198A06003211120C9
:10CA9000FEF7DAFE60683861002005B0F0BD0720BF
:10CAA000FBE7BD60FBE70000201E002080E200E005
:10CAB00000E100E000150140FEB50D461B49174698
:10CAC0008968044600292AD0002C28D0052D01D2DF
:10CAD0000720FEBD6069002821D0607C012820D09D
:10CAE000002602F0CFFFC00010490190896840186D
:10CAF000694602F0F1FF002815D0012101700C49B0
:10CB0000446049680830E2C00849019889684118C2
:10CB100068460078487002F00FFE0020FEBD082035
:10CB2000FEBD2E46DDE70420FEBD0000201E0020D5
:10CB300000150140F8B5134D0446A96800291CD022
:10CB4000002C1AD06069002817D00026267402F045
:10CB500099FFC700A8686946381802F0BDFF002891
:10CB60000DD0022101704460A86839186846007829
:10CB7000487002F0E1FD3046F8BD0820F8BD042001
:10CB8000F8BD0000201E002010B504460948816849
:10CB9000C2688088511A814207D10121064801F0FC
:10CBA00099FC002801D0052010BD21460148FFF75F
:10CBB000CDFE10BD1C250020EE1D002070B50446E2
:10CBC000224888B01E460D0042601CD0A888296803
:10CBD00082B21F48FFF7C5FE002815D1A889A968B1
:10CBE00082B21B481030FFF7BCFE00280CD1202277
:10CBF00018496846FEF7D4FAA06806902079002804
:10CC000004D0012103E0072008B070BD0021684670
:10CC1000017506776079002800D00E2069464875B6
:10CC2000E0780290A07803902078019060780090DE
:10CC30000949684601F0EAFB0028E5D101F070FCE3
:10CC400002480121801C01F045FCDDE7EC1D0020BD
:10CC50001C25002084FB0100ADF8010010B504463E
:10CC6000064801214470401C01F0B4FC112803D196
:10CC700021460348FFF787FE10BD0000EC1D002091
:10CC80002C250020002103480122816002704160B0
:10CC900008467047E01D002070B5002815D0002917
:10CCA00013D0244A1278002A0FD00A88302A17D0CD
:10CCB0000CDC04464034102A10D0112A05D17C2106
:10CCC000FEF787FA0020C043A08670BD322A2DD01F
:10CCD000332AFAD1091D01F085FD70BD8888F3E77C
:10CCE0000546C888091D002807D00021284600F005
:10CCF00013FE284601F0C4FD70BD2C466034207E32
:10CD00003A22504340194A8902808A894280CA895E
:10CD1000C280098A0181284600F0C2FB0100EBD0E5
:10CD200000206076284600F02DFE70BD091D01F040
:10CD3000FAFC70BDE01D002010B504462188001DDE
:10CD40001B2903D1811C084801F020F8204600F07F
:10CD5000CDF821460548FFF79FFF044821461038CB
:10CD600000F006F810BD000000FB01004423002085
:10CD70003EB500282ED000292CD04288164B9A426E
:10CD800002D08C88A24225D10C88112C16D0392CC7
:10CD900020D18288002A1DD08B8993421AD1C26883
:10CDA000002A17D003236A4613700A4612320192F2
:10CDB000097C6A4611726946C2680AE08988914214
:10CDC00008D1C268002A05D004216C462170438036
:10CDD000694690473EBD0000FFFF00003EB50028B9
:10CDE00003D0142A03D907203EBD0E203EBD438840
:10CDF000094CA34201D108203EBD084D38CD009317
:10CE00000295019404896B465C80DA800291408827
:10CE1000694698DF3EBD0000FFFF000078FB01007F
:10CE200000B585B0002348221749082002F0E8FA2F
:10CE3000002801D0FFF77EFD6A460021012002F0A4
:10CE4000C7FA002801D0FFF775FD104802F080FAFC
:10CE5000002801D0FFF76EFD684602F0AFFA002807
:10CE600001D0FFF767FD0A4802F09EFA002801D0C2
:10CE7000FFF760FD074802F0DBFA002801D0FFF75A
:10CE800059FD05B000BD000024210020681B0020D2
:10CE900039CD010089F601007CB5134E00250C4602
:10CEA0003060002918D06946002000F0ABF8002857
:10CEB00019D101A9012000F0A5F8002813D1684676
:10CEC00001790020002901D0022004E06946097898
:10CED000002900D00B2020707068002802D1FFF7D5
:10CEE000A5FC054628467CBDD81D002010B51C4C6D
:10CEF0000188606810290DD011290AD1401E606098
:10CF000007D1FFF793FC002803D02168002900D047
:10CF1000884710BD00281ED100210122084600F0DC
:10CF200001F9002801D0072811D107220221012090
:10CF300000F0F8F8002801D0072808D104220221C7
:10CF4000002000F0EFF8002805D0072803D0216862
:10CF5000002900D088476068401C606010BD000058
:10CF6000D81D0020F8B507460024234802E0641CC1
:10CF7000042C1AD2A2008258BA42F8D1042C14D23E
:10CF80001D481E4E0C38002929D001290ED0022937
:10CF90000BD16000201880194578002D05D0184865
:10CFA0000169002901D028468847F8BD6100611851
:10CFB000755C8E19717800290CD011490A224968D4
:10CFC000806851430E4A521CFFF776FD002801D1BC
:10CFD0000B4847700A48B17814300155DDE7806886
:10CFE000FFF7A8FD06486100611814308919005D3B
:10CFF0008D78A842D1D0F8BD2CFB01005824002028
:10D00000C01D002004280CD2074A1269074B80007B
:10D010001B5C01209840904300D001200870002044
:10D0200070470020FAE70000000500502CFB0100CB
:10D0300010B50D2808D00E280ED00F281BD01028B0
:10D04000024620D012A11FE002461AA10020FEF7DE
:10D05000C9FC02F06BF910BD02461CA10020FEF7CE
:10D06000C1FC20A10020FEF7B1FC87DF00F036FAFA
:10D0700001F07AFD10BD02461EA10020FEF7B2FCB1
:10D0800001F0B0FC10BD21A10020FEF7ABFC10BDEB
:10D090000A536F6D65206F74686572206576656EE2
:10D0A000742068617070656E65643A2025640D0AAD
:10D0B000000000000A427574746F6E2031205075B4
:10D0C000736865643A2025640D0A00000A4275748D
:10D0D000746F6E2032205075736865643A20256441
:10D0E0000D0A00000A5363616E2073746F707065DF
:10D0F000640D0A000A427574746F6E2033205075F7
:10D10000736865643A2025640D0A00000A4275744C
:10D11000746F6E2034205075736865643A202564FE
:10D120000D0A000070B50023042811D24400041930
:10D130000D4D012A02D101290DD00022460080198F
:10D14000094E801900290CD0012906D0022906D0E9
:10D150000723184670BD0D30C2B22A55F9E7427058
:10D16000F7E78270F5E700005824002010B5054A63
:10D170000146127A0020D20702D0084600F054F887
:10D1800010BD0000C01D002070B50E4620490546A8
:10D190004E608D6000200A61A9071ED5002401227F
:10D1A00011462046FFF7BEFF641C042C02D2002863
:10D1B000F5D012E0002810D1720804211548FFF7BD
:10D1C00071FB002809D1FFF75BFB002805D111484E
:10D1D000114A00211438FFF711FCE90706D00F228D
:10D1E0000E4952058A600023CB608A6100280DD168
:10D1F00008480B4A00211C38FFF700FC002805D125
:10D200000448084A01211838FFF7F8FB70BD0000F8
:10D21000C01D00203CFB010021D40100000500508E
:10D2200061DE010069C80100FEB57A4D0722EB6896
:10D2300092059A4302936B6800939C0006461B1963
:10D2400000200121019349050746734C3300FEF786
:10D2500088FE180D1515374755677C887F8891DE45
:10D260009E9E9E9E9EC8CED1D8DEDE140F21029ACD
:10D2700049059143A160E7602F70FEBDA260E760A1
:10D2800060680F2252055040800209D5A160E76016
:10D29000022E02D1E120C0000AE07D20400107E01B
:10D2A000E160A760022E01D1C82001E0FF2091308B
:10D2B0002E706421FDF74AFF0099414300223FE0B0
:10D2C000A260E76060680F2252055040800204D5DA
:10D2D000A160E76019204001EAE7E160A760E3E7A9
:10D2E000A260E76060680F2252055040800202D5BC
:10D2F000A160E760D1E7E160A760D7E7A260E760DF
:10D3000060680F2252055040800202D5A160E7609C
:10D3100001E0E160A7602E700098410000220FE05C
:10D32000A260E76060680F2252055040800202D57B
:10D33000A160E76001E0E160A7602E700099002223
:10D3400036480068FFF7B8FBFEBDA260E7601BE04F
:10D3500061680120800502468A43A2600140E160C5
:10D3600010E06068012189050A468243A2600840F6
:10D37000E060E3E76068012189050A468243A26014
:10D380000840E0600199C9E7E160A7602DE023480B
:10D390004068FFF7CFFB11218A1B01D0002807D07E
:10D3A0000F22E96852051140A160E760EF60FEBD01
:10D3B0000121C905E960012A0CD91046C82148435A
:10D3C0006421FDF7C3FE69680022414313484068A9
:10D3D000FFF772FB0F22E96852051140E160A76078
:10D3E000FEBD0F214905A160E7602E70FEBD07223A
:10D3F0009205AAE70D214905A160E7600121890591
:10D40000C2E70321C905A160E7608910BCE70F21CD
:10D410004905B9E7C01D00200005005020FB0100B0
:10D4200010B500780221FFF79DFD10BD0022D24308
:10D43000830004490428CA5002D308182030027718
:10D44000704700003C260020F0B50025ED43002A7F
:10D4500002D00023042601E0042308260B4C04E03C
:10D460009F00E7597F1C04D05B1CB342F8D32846C9
:10D47000F0BD26185DB2203635709E00A151002AFD
:10D48000F5D1E11820310877F1E700003C260020B3
:10D490000249091820200856704700003C26002049
:10D4A00008B5014660310A46097E3A235943D27DC8
:10D4B0000918002A08D0521ED2B20C235A4352181F
:10D4C000528A6B46521C01E0CA886B461A80098951
:10D4D00059804030808E194692DF08BDF0B50A278A
:10D4E0000021084B0A46074D0020503DCC0065192D
:10D4F0002A542618401C9A550828F9DB491CB942C1
:10D50000F1D3F0BDC01E0020F8B53E4814220178CA
:10D5100051430C18E0680C2148433A492769CC3143
:10D520004018058941890091241D466801F038FBA7
:10D5300001463846FDF70AFE002932D00020009946
:10D54000A2884D436188AE198918CD1900222E4951
:10D5500000280A6109D001F023FB6188884222D0AB
:10D56000B54202D1A08800281DD0A06802281AD098
:10D5700001F016FBA188CA1901461046FDF7E6FD29
:10D58000214C8808E06001F00BFB01462846FDF7BE
:10D59000DDFD002911D00020B5422FD000280ED08B
:10D5A0002CE00120CBE701F0FBFA01463846FDF7FD
:10D5B000CDFD15494861032021E00120ECE7ADB223
:10D5C000B7B201F0EDFA01463846FDF7BFFD064659
:10D5D00001F0E6FA01462846FDF7B8FD864201D182
:10D5E000781B09E001F0DCFA064601F0D9FA0146A1
:10D5F0002846FDF7ABFD701A80082061022001F07B
:10D60000AFFEF8BD64250020FC1D002010B50748C2
:10D6100014220178514308180079042802D000F040
:10D6200059F810BD012001F09BFE10BD64250020BB
:10D6300010B50B481422017851430818094AC188D3
:10D6400011620079012806D0032801D0042801D1F5
:10D65000FFF75AFF10BD012001F082FE10BD00004F
:10D6600064250020FC1D002014225043054A00219F
:10D6700080180171C18001220161C2604161018194
:10D680007047000064250020F8B5104C069E6578B0
:10D690000A2D19D027787D190A2D00D30A3D1427A9
:10D6A0007D432D1928716A6103C92961E860EB8007
:10D6B0002E816078401C607005480078002801D1F8
:10D6C000FFF7B6FF0020F8BD0420F8BD6425002058
:10D6D000FC1D002010B50D4C142120784843011981
:10D6E0000020091DFFF75CF92078FFF7BDFF607887
:10D6F000401E60702078401CC0B220700A2801D102
:10D7000000202070002001F02BFE10BD64250020B9
:10D71000F8B52348C16800293ED00E6821494C68FD
:10D720000769C078E11B0D022D0AED1C002814D1F9
:10D7300001201D4A000450601B4A403A50601B49BA
:10D74000400008601A4908601A49012008602F202B
:10D75000FDF7D0FC12490120C870B54200D2354611
:10D76000E81900020F4B000A403318600D4A516857
:10D77000001B091B0902090A0002000AC91C814298
:10D7800009D9506818602F20FDF7B4FC0120074923
:10D79000400480390860F8BD01F06EFDF8BD00005E
:10D7A000201E0020001501404013014080E200E0EF
:10D7B00000E100E00010014010B5134C2079000793
:10D7C0001FD46069401C6061E068002801D004201B
:10D7D00004E000F0B9FA002803D0022001F04AFF6B
:10D7E00010BD2069002809D06068C10701D003205E
:10D7F000F4E70121084360600020EFE7FFF706FF30
:10D8000010BD01F02BFF10BDFC1D002010B5084815
:10D8100041680A0708D48A0702D5012211434160F2
:10D82000022001F027FF10BD01F018FF10BD00001D
:10D83000FC1D0020F3B5064605466036307E3A21D1
:10D8400048434719F47D0C206043C1193A79601CA4
:10D850000A3183B0904227D101AB0022284600F064
:10D860002DFA002823D010E0401EA04201D1002054
:10D8700003E00C206043C01916300246009001AB53
:10D88000284600F01BFA002808D0002104984035F3
:10D890000170A88E01A993DF05B0F0BDF07D00995D
:10D8A000401C641CF075E4B23879A042DCD80498BE
:10D8B000012101700020EFE7F8B500260124154D85
:10D8C00023E06968F0004718387821462A698140CA
:10D8D000114218D08A432A6100F05CFD3A78214653
:10D8E000EB68914019400346934099420BD17978F7
:10D8F000012901D0012100E000217B684140002B7B
:10D9000001D010469847761CF6B228788642D8D3C4
:10D91000F8BD0000441E0020F3B504466030007ED0
:10D920003A214843071981B0384601F087FC0600C8
:10D9300023D0124D686802281FD24034A18E4422A1
:10D940000F4C5043031959800299002907D0002138
:10D9500021543A223946181DFDF722FC01E002212C
:10D9600021546868442141430919401C0E646860D1
:10D97000A968884201D100F0B1FFFEBDE01D002082
:10D9800094240020F8B5044660300D46007E3A210C
:10D990004843001901F052FC010016D00B484268C0
:10D9A000022A12D240344423A68E5343084C1F4609
:10D9B0001B195E800126E6555D60521C19644260A9
:10D9C0008068824201D100F089FFF8BDE01D00208F
:10D9D0009424002010B50E4900234A788C78A24286
:10D9E00012D0521CD2B24A70022A00D14B704A782F
:10D9F000074B920018339A58026008691018000209
:10DA0000000A0861012010BD0360002010BD000065
:10DA1000201E0020826883881A4003689A5C0A707E
:10DA20008168491C81607047C26883881A40036816
:10DA30009954C168491CC16070470000F0B50F4A95
:10DA40000A249378D578177952790D4900209446A5
:10DA5000C2008E5CB34209D152185678B54205D146
:10DA60009678B74202D1D278944505D0401CC0B216
:10DA7000A042EDD30020C043F0BD0000941D002063
:10DA8000701E002010B50A230B490020C2008C5CD8
:10DA9000002C09D152185478002C05D19478002C10
:10DAA00002D1D278002A05D0401CC0B29842EDD3F2
:10DAB0000020C04310BD0000701E002010B50028DB
:10DAC00003D0112802D0FEF781FF10BD02480822C2
:10DAD00041681143416010BDFC1D002010B51C4C75
:10DAE000217820464068012906D0022929D003293F
:10DAF00012D1000717D513E0000711D415481422DE
:10DB0000017851430818C188A28B891A0904090CAD
:10DB1000C18002D001F066FD10BDFFF7DBFD10BD36
:10DB200000F03AFB10BD6069401C606100F00CF928
:10DB3000002803D0207801F013FC10BDFFF766FD2C
:10DB400010BD6078044980000858804710BD00006F
:10DB5000FC1D002064250020D8FB010010B528DF43
:10DB6000FFF7ACFF10BD10B529DFFFF7A7FF10BD11
:10DB700010B50446C0B2FFF771F8204610BD000092
:10DB8000F8B50746104E0125BD403068FEF7D2FFBC
:10DB900000280DD10D4C2069284207D1384600F0ED
:10DBA000F9FB0028E06804D0284303E0A843206183
:10DBB000F8BDA843E0602069002228432061A168E5
:10DBC0003068FEF779FFF8BDECFB0100441E002031
:10DBD00070B51B4C207900072ED41A481422017806
:10DBE00051430D182E6900F0DBFF0146E8882A89B1
:10DBF000761E80188019FDF7A9FA216900250029F1
:10DC000009D06169814206D1E5606068012108435D
:10DC1000606000200AE000F097F8002802D002209F
:10DC2000E56003E02069002803D0032001F022FD15
:10DC300070BDFFF7EBFC70BD01F010FD70BD000082
:10DC4000FC1D002064250020F8B51B4C207800281E
:10DC500030D0E0680026002809D00025684652DF51
:10DC6000052806D0002806D0FEF764FE0BE001254B
:10DC7000F4E7012607E0009800F0A8FA21690029DE
:10DC800001D000988847002D10D16088694608802F
:10DC9000A06861DF052804D0002804D0FEF74AFE02
:10DCA00004E0012502E0E168A0688847002ED5D095
:10DCB000002DE8D0F8BD0000581E002030B50989BD
:10DCC000002A05D0D088491C814212D1002030BDE5
:10DCD00002466032147E3A256C4324182489A142FE
:10DCE000F4D0491C1980117E3A225143081800894A
:10DCF00002E01980D088401E5880012030BD00000D
:10DD00001048018CC9B2012917D1818C090714D19F
:10DD1000018D09060A0F03D1828D1206120F0ED053
:10DD2000090F012903D1828D1206120F07D0032992
:10DD300003D1808D0006000F01D000207047012024
:10DD400070470000C00F00F070B50E481422017833
:10DD500051430C18256900F023FF0146E088228911
:10DD60006D1E80184019FDF7F1F907494A69824292
:10DD700006D3824202D10869002801D0002070BD7C
:10DD8000012070BD64250020FC1D0020F0B50E466A
:10DD900000250936084687B020300C4603904FE036
:10DDA000705D0190072020563221C84245DD284889
:10DDB000FEF71CFE2648F02108388768FA0910464D
:10DDC0000692FDF7C3F92248FA0F0838C1601030F7
:10DDD0000270FA0D4270FA0B8270069AC2700A0A3B
:10DDE000001D02704170217C022902D000290FD051
:10DDF0001FE0617C15291CD10399897881700399F2
:10DE0000C978C170039909790171039949790DE0C5
:10DE1000617C99290DD10399C97881700399097999
:10DE2000C170039949790171039989794171002180
:10DE3000817101F0A3FB00F087FD01982D186D1C86
:10DE4000207AC008A842ABD8002007B0F0BD00007F
:10DE5000881D0020800701D00020704701207047F6
:10DE600010B50448017AC90702D00078FFF7DCF941
:10DE700010BD0000C01D0020F8B52C49C8680A6913
:10DE80000C780F7989688646944600913EE00099A7
:10DE9000E20055182A7836E0182353436968521C6B
:10DEA000C918AB78D2B2934200D100220B78022B72
:10DEB00002D0032B27D123E04E680346014603E03E
:10DEC000B14204D00B46C96900291CD0F8E70029EB
:10DED00019D08B4208D1C069002805D1144F012602
:10DEE000BE600026B44601270E68C969D9610029C1
:10DEF00009D00B689B190B6005E00174C06900E054
:10DF000000210028F9D169789142C5D12146641ECB
:10DF1000E4B20029BBD1054962460A61C8600F71AD
:10DF2000704501D00120F8BD0020F8BD201E002062
:10DF300000100140F8B5044631480026C168009140
:10DF400007784EE02E48F90080680D1843E0002C59
:10DF500002D02046E4691FE02878182141436A680E
:10DF6000401CC0B251182870AA78904200D12E707F
:10DF70000A784868012A30D1027C002A2DD18A68AB
:10DF80004260CA6882600A69C260496981611C494D
:10DF90000979002900D04660194943680A699C46FE
:10DFA000991A0902174B090A994202D28268891804
:10DFB00007E06146511A09028268090A8A4202D9B9
:10DFC000511A016000E0066046600121866001741C
:10DFD000C66101F0B9FB002CB9D128786978884274
:10DFE000BAD138467F1EFFB20028ABD10448C168C1
:10DFF0000098814201D00120F8BD0020F8BD00004A
:10E00000201E0020FFFF7F0088B04DA10020FDF7FB
:10E01000DDFC4FA10020FDF7D9FCFF2401340023D3
:10E020004C4A05212046FEF7FFFC002801D0FEF7F0
:10E0300081FC49A10020FDF7C9FC484A0D210320BD
:10E04000FFF7A2F8002801D0FEF774FC6946002013
:10E05000FEF722FF002801D0FEF76CFC684600782E
:10E0600002283BD0002069463D4A087107CA04AB2C
:10E0700007C33C480090FF30013002900194032315
:10E08000394A6946039404A8FEF798FD002801D098
:10E09000FEF750FCFEF7C4FE34A10020FDF796FC0D
:10E0A00000F088FE00F0F2FF642000F081F800F03C
:10E0B000E9FEFEF7E7FD002801D0FEF73BFC2C4906
:10E0C0000120086001F032F92A48F0218068C00977
:10E0D0000446FDF73BF8002902D009E00120C2E721
:10E0E000EF2C05D9FFF7FAF923A0FDF713FF21E084
:10E0F00011212046FDF72AF800291ED1102C1CD929
:10E100000022184D0A271046643D164B0021C60018
:10E11000B43BF3185E5CAE54491C521C0829F9DB71
:10E12000401CB842F1D3204601F060F801F03EF8FF
:10E1300000F0A8FE174800F03BF800F0FDFBC3E735
:10E140000A4D61696E20737461727465640D0A0012
:10E15000410D0A006C210020420D0A0031D001005F
:10E1600014FB0100241F002055F80100430D0A0094
:10E1700000100140801D00203A3A3A20436C65614E
:10E180006E656420426561636F6E207461626C65C8
:10E190000A000000E703000010B5044808224168A7
:10E1A00091434160007801F0DBF810BDFC1D0020B8
:10E1B00031B5054C04E0401E00902046FCF78AFF74
:10E1C00000980028F7D138BDE703000070B500289B
:10E1D0000AD1064C00252168002905D00868206076
:10E1E000496828468847F6E770BD00005C25002096
:10E1F0008207D30EFF229A408907090E10B5994075
:10E2000000280BDA03071B0F083B9C080C4BA400EB
:10E21000E318DC6994430C43DC6107E08408094B94
:10E22000A400E418236893430B432360C106C90E7E
:10E2300001208840044908600449086010BD0000BE
:10E2400000ED00E000E400E080E200E000E100E03A
:10E25000F3B581B00F46019800F056FB0124002869
:10E260001E4E019817D0FFF713F980192030007F58
:10E270008009032802D0012806D007E01848006969
:10E2800001998C40204201D1022100E00321019834
:10E2900000F022FAFEBD00F043FB0028FAD00198FE
:10E2A000FFF7F6F805468100C81D0E4AF9308918B7
:10E2B0000A6980B222430A610B49401800210160BB
:10E2C000002FE7D00198FFF7E3F8800030580028CE
:10E2D000E0D00648AC404460FEBD00003C26002073
:10E2E00000050050006500400060004000630040F1
:10E2F000FEB5044623480E4600192021415600274A
:10E30000C8171346401C01D0082738E0F278194698
:10E310002046FFF799F80546401C2FD0B07800281A
:10E3200007D01948A1000918086802229043086024
:10E3300007E000217378204600910A46019100F021
:10E34000A5F9F078002810D01048AA0010183178EC
:10E3500002690F4B1A400261E206D20C8907890B51
:10E360000A4301690A43026109E00648327840190C
:10E370002030017F92011143017700E004273846E5
:10E38000FEBD00003C260020000700500065004054
:10E39000FFE0FCFF03490969C140C807C00F00D076
:10E3A000012070470005005070B5124D28790028F3
:10E3B00001D0082070BD0F4900204039421E0B18C3
:10E3C0002033401CC0B21A702028F8D30024204605
:10E3D000FFF72CF8641CE4B2082CF8D303210620C4
:10E3E000FFF706FF01200449C0074860012028719B
:10E3F000002070BD7C2600200063004002480079A8
:10E40000002800D0012070477C260020F3B52A4C5C
:10E410000746E07E81B0002801D00820FEBD002F15
:10E4200000D1264F386800F04CF938780126314683
:10E430008140234881600021786800F039F9214D3E
:10E44000B8696862787D397D0843E86603CFE86083
:10E450006961387B083F01280FD10021B86800F0BE
:10E4600027F9F86800F02DF9387B314681401448CF
:10E470008160F968B868A9602861029860603969AC
:10E48000216000280ED0FF230F481D33397F002262
:10E49000C250FF234533C2500D4A0C485060022041
:10E4A000FFF7A6FE042028600020E0752076A07506
:10E4B000E676A076FEBD00003C250020A4FB01000E
:10E4C00000050050002500400020004080000200B0
:10E4D00000230040F8B5104B81245E680022A400A0
:10E4E0000E4D002E00D0AC60DF7D002F0BD01A7EC9
:10E4F000002A04D0002E00D06C601120F8BD1861F5
:10E500000122197604E0D9750024D8605C761C7667
:10E5100000F012F8F8BD00003C2500200023004068
:10E5200010B5044CA07E002803D100F0F1FE0120BC
:10E53000A07610BD3C250020F8B5234DA87E1043E1
:10E5400001D100F0E5FE6868204C002805D081204C
:10E550001F49800048600020F8BDFF2045300021A1
:10E560002150FF212531204600F0D0F80546FF213B
:10E570000931204600F0CAF80746FF214531204600
:10E5800000F0C4F80646394631432943E9D028460D
:10E59000304306D100F092FE0B48C17D407E81429F
:10E5A000DFD800210848002DC17501D00320F8BD37
:10E5B000002E01D00F20F8BD817E0120002901D05E
:10E5C0002060C8E76060C6E73C25002000200040CE
:10E5D0000023004010B5064A937D002B01D0112086
:10E5E00010BD917590600020908200F003F810BD7E
:10E5F0003C250020F8B50026194FFF251D357E511A
:10E600000120B86001F000F9164C6168002910D0B3
:10E6100022E0FF2701372946114800F077F800284B
:10E6200002D1A08AB842F6D1A08AB84201D001F046
:10E63000EBF8A08AA17D8842EBD3A18AC81FF938E4
:10E640000CD0074F2946384600F060F80028F9D072
:10E650000120F8600020A0753046F8BD0F26F9E7CC
:10E66000002000403C25002030B552000A439900AC
:10E67000039C0A432102049D0A4329040A430249D8
:10E6800080004018026030BD0007005030B55200D5
:10E690000A439900039C0A432102049D0A4329046A
:10E6A0000A43024980004018026030BD0007005054
:10E6B0001CB500220B46009211460192FFF7D4FFD1
:10E6C0001CBD1CB5002100910B4601220191114691
:10E6D000FFF7CAFF1CBD0000820006481018026840
:10E6E00003231B049A430260026809040A43026080
:10E6F00070470000000700500349401800680128D7
:10E7000000D0002070470000006000404058002802
:10E7100000D0012070470322120280184068084090
:10E7200000D001207047F3B583B0039E3A226036D3
:10E73000307E5043039A85184888002837D1083125
:10E7400000912C7908782018042800D90420287119
:10E75000002711E00A200099784341180C206043FB
:10E76000401901900A220A30891CFCF719FD00218A
:10E770000198641C81827F1C2879A042EAD80C2071
:10E7800044436019C288307E3A23039958434018A5
:10E79000008982420BD22879042808D0F0750398AA
:10E7A000FEF77EFE01000ED00020707608E0002407
:10E7B000F47569460398FFF73DF8010005D07476BB
:10E7C0000398FFF7DFF805B0F0BD68460078002831
:10E7D000F9D001210398FFF79FF8039800F050F853
:10E7E000F1E70000F8B50446054660340B46207E8C
:10E7F0003A2148434219E07D0C26704380180A30C4
:10E800008446194658880831002812D11B4E0B88BF
:10E810000DE0062747437F18BF88B74206D106237D
:10E820005843401841886046418102E0401C8342C1
:10E83000EFD8002668460670E07D1179401C8842BA
:10E8400003D10120694608700FE0E075694628464B
:10E85000FEF7F0FF010004D066762846FFF792F835
:10E86000F8BD684600780028FAD001212846FFF755
:10E8700053F8284600F004F8F8BD00000229000013
:10E8800070B5044605466034A07E1249401CC0B2F3
:10E89000A0768968002688421AD2E675207E3A2141
:10E8A000401CC0B241434A1920760B49C0004018B1
:10E8B000018811804088508074201671405B0121CE
:10E8C00090DF010003D066762846FFF75BF870BD45
:10E8D000667670BDE01D00208424002070B5002401
:10E8E000074D084E05E0442060438019016C8847BD
:10E8F000641CA8688442F6D30020686070BD0000E4
:10E90000E01D0020942400200449081820214156CD
:10E91000042901DB01207047002070473C260020BD
:10E920000449081820214156042901D201207047CA
:10E93000002070473C26002010B548DF002801D099
:10E94000FDF7F8FF10BD000030B5114885B04178E3
:10E95000C37882786C460EC404460378103CA068E5
:10E960000CA1C2090020FDF73DF82046143045797E
:10E970000379C2788178019102A92CC14178009174
:10E9800003780AA10020E268FDF72CF805B030BD3D
:10E99000901D00205B25645D5B2530327825303288
:10E9A0007825303278253032785D3A005B25303377
:10E9B000645D2054696D653A202530327825303207
:10E9C00078204D616A6F723A2025303278253032D6
:10E9D000782C204D696E6F723A20253032782530C0
:10E9E00032780A00F0B50A2587B000241348E10008
:10E9F000435C002B09D10A185678002E05D1967871
:10EA0000002E02D1D278002A16D00818C77986794C
:10EA100042790179069703AF46C7C178827840787A
:10EA2000019202910090224605A10020FCF7DAFF36
:10EA3000641CE4B2AC42D9D307B0F0BD701E002014
:10EA40005B253032645D3A5B253032782530327890
:10EA50002025303278253032782025303278253024
:10EA600032782025303278253032785D0A00000077
:10EA700030B5124B1B795B0701D4082030BD00284C
:10EA800005D0002A03D00468002C10D101E00E202C
:10EA900030BD0B4B1D68002D09D0456818894143D6
:10EAA00069185D89454358682818884201D80720AD
:10EAB00030BD14600020516030BD0000FC1D0020FE
:10EAC00030260020FEB5054625480E460079400751
:10EAD00001D40820FEBD002D03D02868002834D1C1
:10EAE00001E00E20FEBD1F4C216800292DD0608959
:10EAF00021894843616841186868814225D9FFF738
:10EB0000A9F900280FD06868019029680C225143A8
:10EB10000F1979680091401A39890C46FCF716FBE9
:10EB2000002912D101E01020FEBD21463046FCF73D
:10EB30000DFB002909D1002E07D0788944430198A4
:10EB4000811900980019814201D90720FEBD0020DB
:10EB500002460090334629460320FEF795FDFEBD90
:10EB6000FC1D00203026002010B50121890202483A
:10EB7000FFF7A8FF10BD0000A41D002010B5074836
:10EB80004469601C06D000F00BF801462046FCF7F3
:10EB9000DDFA10BD01200007406910BD0010001013
:10EBA00001200007006980B27047000010B543687B
:10EBB0001B484468A34201D100230370012914D0EB
:10EBC000022907D003291ED004290DD1002A15D00F
:10EBD00014A01BE0002A01D01DA017E027A0FDF71C
:10EBE00099F90D20FEF7C2FA10BD002A01D02CA021
:10EBF0000CE036A0FDF78EF90E20F3E73CA0FDF700
:10EC000089F90F20EEE7002A04D043A0FDF782F92E
:10EC10000B20E7E74BA0FDF77DF91020E2E70000AD
:10EC2000801D00207073746F7261676520555044B9
:10EC3000415445204552524F522063616C6C6261D1
:10EC4000636B207265636569766564200D0A000058
:10EC50007073746F72616765204C4F414420455258
:10EC6000524F522063616C6C6261636B207265630A
:10EC70006569766564200D0A000000007073746F8A
:10EC800072616765204C4F41442063616C6C626126
:10EC9000636B207265636569766564200D0A000008
:10ECA0007073746F726167652053544F52452045ED
:10ECB00052524F522063616C6C6261636B207265CB
:10ECC000636569766564200D0A0000007073746FD7
:10ECD000726167652053544F52452063616C6C62CA
:10ECE00061636B207265636569766564200D0A0057
:10ECF0007073746F726167652055504441544520AC
:10ED000063616C6C6261636B2072656365697665D3
:10ED100064200D0A000000007073746F72616765F3
:10ED200020434C454152204552524F522063616C62
:10ED30006C6261636B207265636569766564200D42
:10ED40000A0000007073746F7261676520434C4560
:10ED500041522063616C6C6261636B207265636514
:10ED600069766564200D0A0070B500240F482546B9
:10ED7000047044702846FEF777FC6D1C0A2DF9D309
:10ED80000B4D6C80FFF7FAFE861EFFF709FF464326
:10ED90000648AE60CC306C610460048144812C7004
:10EDA000AC610420EC616860002070BD6425002027
:10EDB000FC1D002010B5FFF7D7FF0121054889028F
:10EDC00081800121C180044901600146103900F0B1
:10EDD000B7F810BDAC1D0020ADEB0100FFB5274812
:10EDE00081B000791F4616460D46400702D4082020
:10EDF00005B0F0BD002D06D00198002803D028688A
:10EE0000002815D101E00E20F2E71D4C20680028F3
:10EE10000ED0618920896268414389186A689142ED
:10EE200006D9002E04D0B04202D3F119814201D993
:10EE30000720DDE70198FFF70DF800281BD03846C2
:10EE4000FFF708F8002816D06868FFF703F80028D5
:10EE500011D068683246C1190198FCF7A1F90096F3
:10EE600028680C2148432458002202212846019B8F
:10EE7000A0470020BCE71020BAE70000FC1D0020DE
:10EE80003026002070B5224A002110460838FFF7CE
:10EE9000EFFD1F481E4C4068243C6060012020703C
:10EEA000002358221A491B48FFF798FF01E0FFF79B
:10EEB00043FD20780028FAD117A0FDF72BF8002495
:10EEC000144D10E0204608384C280CD2285D00284C
:10EED00009D128194178002905D18178002902D16A
:10EEE000C07800280FD0600702D111A0FDF712F8FA
:10EEF000295D10A0FDF70EF80A20FFF759F9641CF0
:10EF0000E4B2582CDED30DA0FDF704F870BD00006C
:10EF1000A41D0020C02300207073746F72616765A8
:10EF2000206C6F616420626C6F636B2030203A0D3F
:10EF30000A00000025303278200000000A0A000094
:10EF4000F8B52C4D044628790E46400701D4082018
:10EF5000F8BD002C20D0002E1ED0206800281BD029
:10EF6000FFF71EFE0146A088814213D3102811D35B
:10EF7000E08800280ED0FFF701FE471EFFF710FEC5
:10EF80004743E288A188A8684A431218974201D3F0
:10EF9000890703D00720F8BD0E20F8BD6988012934
:10EFA00026D031600C22144B51437060CA18506057
:10EFB00020685850A0881081E0885081FFF7F0FD4C
:10EFC0000646FFF7EDFDA188E288401E5143401838
:10EFD0003146FCF7D1F80446FFF7E2FD0146A86888
:10EFE00061430818A8606888401C68800020F8BD4C
:10EFF0000420F8BDFC1D002030260020F8B5044692
:10F0000020481E46007915460F46400701D40820C7
:10F01000F8BD002F05D0002C03D02068002815D1A2
:10F0200001E00E20F8BD1848016800290ED0428981
:10F03000018940684A4310186268904206D9002D41
:10F0400004D0A94202D3A819884201D90720F8BDEB
:10F050003846FEF7FFFE002811D03046FEF7FAFED4
:10F0600000280CD06068FEF7F5FE002807D02B467C
:10F070003A46214601200096FEF706FBF8BD102017
:10F08000F8BD0000FC1D0020302600200E4A10B5FF
:10F09000104600210838FFF7EBFCFFF765FD0A4C2E
:10F0A0000948243C4068606001202070214600230C
:10F0B000082234310448FFF7A1FF01E0FFF73CFCD0
:10F0C00020780028FAD110BDA41D002010B51249E7
:10F0D00002460878002813D0042811D0022A18D03C
:10F0E000032A0DD10A79120713D48A697D23521C91
:10F0F000DB008A619A4208D0022802D000F030F981
:10F1000010BD487800F0B6FA10BD0D20FDF75EFC8A
:10F1100010BDFEF7E3FC10BDFC1D0020F8B5044651
:10F1200020481E46007915460F46400701D40820A6
:10F13000F8BD002F05D0002C03D02068002815D181
:10F1400001E00E20F8BD1848016800290ED0428960
:10F15000018940684A4310186268904206D9002D20
:10F1600004D0A94202D3A819884201D90720F8BDCA
:10F170003846FEF76FFE002811D03046FEF76AFED3
:10F1800000280CD06068FEF765FE002807D02B46EB
:10F190003A46214604200096FEF776FAF8BD102084
:10F1A000F8BD0000FC1D0020302600200D4A10B5DF
:10F1B000104600210838FFF75BFC0A48094C4068FC
:10F1C000243C606001202070082350220649054835
:10F1D000FFF7A4FF01E0FFF7AFFB20780028FAD18A
:10F1E00010BD0000A41D0020C01E002010B5124953
:10F1F000020E0A71020C4A71020A8A710A46C8712B
:10F20000103A104600210838FFF732FC0A480A4C31
:10F2100010384068343C606001200749207008467F
:10F22000002308221038FFF779FF01E0FFF784FB85
:10F2300020780028FAD110BDB41D002070B50D4B08
:10F2400000210B4A9B680EE0CC00A518AD788678AB
:10F25000B54207D1145B0588AC4203D1C8008018C1
:10F26000406870BD491C9942EED3002070BD00007B
:10F2700084240020E01D002070B501240B496004A7
:10F2800008600B4940108860094940398860094D81
:10F290006C602F20FBF72EFFAC60074D00242F2061
:10F2A0002C61FBF727FFEC7070BD000080E100E0EF
:10F2B0004013014000100140201E002030B50A48D4
:10F2C000FF21C57D0022094C0931094B002D6250F8
:10F2D00007D09969437EC268D154417E491C41766A
:10F2E00030BD986930BD00003C2500200020004062
:10F2F000002500401FB501236A46137010720348B1
:10F30000019106C8684690471FBD00003C250020BB
:10F31000FF220548253200218150FF220932815009
:10F3200001210160704700000020004010B507482F
:10F3300086DF002801D0FDF7FDFA0120FDF716FF5A
:10F34000002801D0FDF7F6FA10BD000004FB010013
:10F3500008B502490020009108BD0000801D002072
:10F3600010B50F490028087009D0012811D00228D3
:10F3700012D0032802D14869FEF7F0FB10BD00202F
:10F380008861C861074840780028F7D0FEF750F937
:10F3900010BD00F027F910BD00F054F810BD0000BA
:10F3A000FC1D002064250020002803D00249C8600D
:10F3B000002070470E207047581E00201CB50349DE
:10F3C00001910091694660DF1CBD0000801D002096
:10F3D00070B50E460546144614211046FBF7F9FE9B
:10F3E0000120002120802161217326726572002D89
:10F3F00000D0A072002070BD10B5FDF78DFA10BDD1
:10F4000070B5002901D08C0701D0072070BD064CD3
:10F410000125A16062800549636010DF0028F5D1F5
:10F42000257016202EDF70BD581E0020F9F3010054
:10F43000002803D002490861002070470E20704761
:10F44000581E0020F8B5164C142260684008400091
:10F4500060601448017851430E183769FFF7A0FB2C
:10F4600001463846FBF772FE05466061FFF798FBE0
:10F470000146F0887F1EC019FBF768FE0222854214
:10F48000606801D1104300E090436060E168104083
:10F49000084303D0002000F0EDF8F8BD0220FAE7A1
:10F4A000FC1D00206425002010B502484069FEF7CD
:10F4B00055FB10BDFC1D002010B5FFF75FFB441E7F
:10F4C000FFF76EFB4443FFF76BFB04494A69521E8A
:10F4D0005043CA682146FEF746FB10BDFC1D0020C4
:10F4E000F8B510481422017851430C182569FFF72C
:10F4F00057FB0146E088228980184019FBF726FE59
:10F500000F46FFF73BFB461EFFF74AFB4643E088EA
:10F510002289F1198018044A40191269FEF723FB69
:10F52000F8BD000064250020FC1D002070B5FFF729
:10F5300037FB0546FFF722FB441EFFF731FB604314
:10F540002946FBF703FEFEF709FB70BD70B5FFF718
:10F5500027FB8608FFF724FB07494969484304460F
:10F56000FFF70CFB451EFFF71BFB684332462146A5
:10F57000FEF7F9FA70BD0000FC1D002030B5FEF763
:10F580005DFA164CA178002908D1E178002905D14F
:10F590002179002902D1617900290AD0104D411C3E
:10F5A00008D0002805DBC0002178401981716178FE
:10F5B000C17130BDFEF766FAA178C0002954E17828
:10F5C00040194170217981706179C1702178017190
:10F5D000627842718171C27130BD0000941D0020BB
:10F5E000701E002070B514481422017851430C1885
:10F5F000241DFFF7D5FA6188104E884211D2FFF71B
:10F60000CFFA61880D1AFFF7CBFA8208A188E0686B
:10F610004018216940194919FEF7A5FAFFF7C0FA09
:10F6200007E0A288E06880188A082169FEF79BFA43
:10F630006088F06170BD000064250020FC1D002082
:10F6400010B505480079000703D4012000F012F836
:10F6500010BD00F003F810BDFC1D002010B50448DB
:10F660000822416891434160407800F003F810BDE2
:10F67000FC1D0020024948700249800008580047DC
:10F68000FC1D0020C4FB010010B5022801D0032896
:10F6900001D1FFF71BFD10BD10B50548007900072B
:10F6A00002D4FDF7B3FF10BDFFF7D8FF10BD000077
:10F6B000FC1D0020FEB51F4C00252769E068029064
:10F6C0006846FEF787F90190FEF7D6FB06460198DB
:10F6D000002822D000230098E16817E00E680A464F
:10F6E000864202D9301A086012E0801BF318002607
:10F6F0001660D668D169B446002E07D0FE183602CF
:10F70000360A566066469660D56115460029E5D1F1
:10F710002846E160FEF70EFC06E02846FEF70AFCEC
:10F72000002801D1002E02D00298FDF7F1FF002041
:10F730002071FEBD201E0020012002490005086046
:10F740007047000000E200E010B50E4BD9680029B8
:10F7500006D002680C68A24204D8A21A0A60C161ED
:10F76000D86010BD0B4604E00B46C969121B002986
:10F7700004D00C689442F7D3A41A0C600260C161F3
:10F78000D86110BD201E0020F8B51D4DEC68002C7E
:10F7900034D01C48002740682969401A0602360AFE
:10F7A0002068B04218D8361AC7192246107CE4697E
:10F7B00000280FD0002010746B69002B07D09169CE
:10F7C00050699847002805D0FDF7B4F802E0516968
:10F7D00090698847002CE3D16978A878814206D1E6
:10F7E000401CC0B2A870022801D10020A8700449B2
:10F7F0000006800D18310F50FFF79EFFF8BD000086
:10F80000201E002000150140FF2107481D31002265
:10F8100042500648828A8168895C828A521C8282B0
:10F820000348C16170470000002000403C250020D3
:10F83000002500401FB500216A461170107204486F
:10F8400082680192817506C8684690471FBD000016
:10F850003C25002070B50178002907D0012901D08E
:10F86000022902D14068FDF765F870BD0D4C0C4DC2
:10F8700060782818FDF788F96078401CC0B2291814
:10F8800060702039C97F0A2901D01428EDD362782D
:10F8900003490548FDF7A2FA0028F8D1607070BD51
:10F8A000101F0020801D0020342300207CB501782B
:10F8B000284D01290AD002292FD000292CD1294610
:10F8C0002548FDF743F8002833D036E0406801783A
:10F8D00021481038FDF757F81F4C103C002805D080
:10F8E00001216A4611700190684608E0A068E1684D
:10F8F000081A012805D10020694608706846696821
:10F900008847A068E168081AA188884204D811488D
:10F910000121801CFEF7DEFD7CBD02216A461170CC
:10F92000C06801900B480121801CFEF7D3FD68469A
:10F930000CE001210748FEF74DFE07488168C068CA
:10F940008842E9D10320694608706846696888479B
:10F950007CBD0000EC1D00202C250020F0B5454D9D
:10F96000012185B049022846FEF7D5FE0127002671
:10F97000414C002824D0FF2125312846FEF7C6FE41
:10F9800000281DD0FF2025302E5081203B498000CB
:10F990008860A07E002800D16F6002216846017057
:10F9A0003749086808600390E17D68460172E068A5
:10F9B0000190E675267606CC6846083C90472BE019
:10F9C00004212846FEF7A7FE002825D0FF21093193
:10F9D0002846FEF79BFE00281ED0FFF76FFCE07D57
:10F9E000617E884218D1207E002808D0627EE168BE
:10F9F000E0752069E0602676667610460AE0A07E13
:10FA0000002800D16F6081201C4980008860E67565
:10FA1000607EE168FFF76EFCFF211D312846FEF78E
:10FA200075FE00280DD0A18AA07D814202D2FFF789
:10FA3000EBFE06E0FF211D316E50002801D0FFF7DC
:10FA4000F9FEFF2145312846FEF760FE00280ED062
:10FA5000FF2045302E50A07E002800D02F60E07D92
:10FA6000002804D0E675607EE168FFF743FC05B02E
:10FA7000F0BD0000002000403C2500200023004095
:10FA80008024004012494868C005C00D19D01038C4
:10FA900040B2002807DA0207120F083A92089200D3
:10FAA0005118C96904E081080A4A8900891809685F
:10FAB0008007C00EC1400806800F012803D003282C
:10FAC00003D00220704700207047012070470000DB
:10FAD00000ED00E000E400E042788378521CD2B2EE
:10FAE000934200D100220378934201D10020704755
:10FAF0000A70416840781822504308187047000087
:10FB0000010002000100000000000000C8005000D9
:10FB1000000000000B09080A0100000000509D00D1
:10FB20001824002038240020642400201100000044
:10FB30001200000013000000140000001100030078
:10FB400065CF01001200030065CF01001300030020
:10FB500065CF01001400030065CF01009ECADC24BC
:10FB60000EE5A9E093F3A3B50000406E010100008B
:10FB70000000020000000000020100000000000080
:10FB800000000000090000000B0000000A00000057
:10FB900008000000000000000000000000509D0070
:10FBA00003000000090000000B0000000A00000034
:10FBB00008000000000000000000000000509D0050
:10FBC000030000002DF501004DF50100A9F401002E
:10FBD000E1F40100B9F4010041F601000DD8010083
:10FBE000B9D7010099F60100D1DB0100842600207D
:10FBF0000300000030313233343536373839414272
:10FC00004344454624FC0100801D0020F000000014
:10FC10007CBF010014FD0100701E0020C014000014
:10FC20008CBF010000000000000000000000000088
:10FC300000000000000000000000000000000000C4
:10FC400000000000000000000000000000000000B4
:10FC5000000000000000000001020304000000009A
:10FC60000000000000000000000000000000000094
:10FC70000000000000000000000000000000000084
:10FC80000000000000000000000000000000000074
:10FC90000000000000000000000000000000000064
:10FCA0000000000000000000000000000000000054
:10FCB0000000000000000000000000000000000044
:10FCC0000000000000000000000000000000000034
:10FCD0000000000000000000000000000000000024
:10FCE0000000000000000000000000000000000014
:10FCF0000000000000000000000000000000000004
:10FD000000000000000000000000000000000000F3
:04FD10000024F400D7
:040000050001B0C185
:00000001FF
